:020000040800F2
:1000000000200020591E0008A51E000883220008B9
:1000100000000000000000000000000000000000E0
:10002000000000000000000000000000A51E000805
:100030000000000000000000A51E0008A51E00082A
:10004000A51E0008A51E0008A51E0008A51E000884
:10005000A51E0008A51E0008A51E0008A51E000874
:10006000A51E0008A51E0008A51E0008A51E000864
:10007000A51E0008A51E0008B9060008A51E000858
:10008000A51E0008A51E000800000000A51E00080F
:10009000A51E0008A51E0008A51E0008A51E000834
:1000A000A51E0008A51E0008A51E0008A51E000824
:1000B0005104000800000000A51E00080000000018
:1000C0005FF808F180B588B000AF78600023FB616D
:1000D0000023BB6100237B6100233B610023FB60A5
:1000E000664B5B680C221340FB61FB69042B07D055
:1000F000082B09D0002B31D17B68614A1A6031E0AE
:100100007B685F4A1A602DE05C4B5A68F0239B03C2
:100110001340BB61594B5A6880235B0213407B61DB
:10012000BB699B0C0233BB617B69002B05D1BB69AA
:10013000544A5A437B681A6014E0504BDB6A0F2222
:10014000134001333B6139694D4802F0B7FB0300AE
:100150001A00BB695A437B681A6003E07B68484A0F
:100160001A60C046454B5B68F0221340FB61FB6997
:100170001B09FB61444AFB69D3181B78DBB2FB60A7
:100180007B681A68FB68DA407B685A603B4B5A68A8
:10019000E023DB001340FB61FB691B0AFB613A4A69
:1001A000FB69D3181B78DBB2FB607B685A68FB687D
:1001B000DA407B689A60314B1A6B80235B001340F6
:1001C00003D17B68314ADA6010E02C4B5A688023F7
:1001D000DB01134005D17B689B685A087B68DA60B5
:1001E00004E07B689B689A087B68DA60234B1B6B92
:1001F0004022134003D17B68254A1A6103E07B68E3
:10020000802212021A611D4B1B6B1022134003D176
:100210007B681B4A5A6103E07B681A687B685A61F5
:10022000164B1B6B0322134004D17B689A687B68D2
:100230009A611EE0114B1B6B03221340012B04D16A
:100240007B681A687B689A6113E00C4B1B6B032276
:100250001340022B04D17B68802212029A6108E0CD
:10026000064B1B6B03221340032B02D17B68044A0D
:100270009A61C046BD4608B080BDC046001002402D
:1002800000127A0000093D0000000020809FD50088
:100290001280000080B582B000AF78600A00FB1CBD
:1002A0001A70FB1C1B78002B06D0094B084A5169B9
:1002B0007A680A435A6106E0054B054A5269796833
:1002C000C9430A405A61C046BD4602B080BDC0461F
:1002D0000010024080B582B000AF78600A00FB1CBD
:1002E0001A70FB1C1B78002B06D0094B084A916939
:1002F0007A680A439A6106E0054B054A9269796873
:10030000C9430A409A61C046BD4602B080BDC0469E
:100310000010024080B582B000AF78600A00FB1C7C
:100320001A70FB1C1B78002B06D0094B084AD169B8
:100330007A680A43DA6106E0054B054AD2697968B2
:10034000C9430A40DA61C046BD4602B080BDC0461E
:100350000010024080B582B000AF0200FB1D1A7091
:10036000064BFA1D127811001F220A40012191400C
:100370000A001A60C046BD4602B080BD00E100E040
:1003800080B588B000AF80239B0201211800FFF7E1
:1003900081FF1823FB180C221A601823FB18032274
:1003A0005A711823FB1802221A711823FB18002215
:1003B0009A711823FB180122DA711823FA18902376
:1003C000DB051100180001F025FE80239B020121AE
:1003D0001800FFF79FFF9023DB0501220221180080
:1003E00001F0F4FE9023DB0501220321180001F047
:1003F000EDFE3B00E12252021A603B0000225A60EF
:100400003B0000229A603B000022DA603B000022A1
:100410005A613B000C221A613B000B4A1900100084
:1004200001F03AFF084B0121180001F0E5FF0749F0
:10043000054B0122180002F01DF81C20FFF78AFF6F
:10044000C046BD4608B080BD00440040050105001F
:10045000B0B500AF2A4A2B4B1100180002F06CF81F
:10046000031E1BD0284B1B78DBB21C00254B180049
:1004700001F0F2FF0300DAB2244B1A55224B1B782D
:10048000DBB20133DAB2204B1A701F4B1B78DBB2A0
:100490005BB2002B02DA1C4B00221A701C4A194B6B
:1004A0001100180002F048F8031E26D0194B1B78E3
:1004B000DBB25A1CD1B2174A11701A00164B9B5C62
:1004C0009BB2104A1900100001F0B4FF114B1B78C9
:1004D000DBB25BB2002B02DA0E4B00221A700F4B1C
:1004E0001B78DAB20B4B1B78DBB29A4205D1084974
:1004F000044B0022180001F0BDFFC046BD46B0BD50
:100500000501050000440040180000202C000020D8
:10051000070107001A000020B00000201B00002087
:1005200090B585B000AF7860C046214B40211800DF
:1005300001F0E4FF031EF8D00F23FB1800221A700D
:1005400022E01C4B1B78DBB219000F23FB181B7831
:100550007A68D3181A78184B5A54164B1B78DBB2AA
:100560000133DAB2134B1A700F23FB181A780F23DA
:10057000FB1801321A700F4B1B78DBB25BB2002BF9
:1005800002DA0C4B00221A700F23FB181C787B68D0
:10059000180002F081FA03009C42D2D30749044BB1
:1005A0000122180001F066FFC046BD4605B090BDAF
:1005B000004400401B000020B0000020070107009D
:1005C00080B500AF1D4B1B78DAB21D4B1B78DBB238
:1005D0009A4230D01A4B1B78DBB21A00194B9B5C45
:1005E0003B2B13D0184B1B78DBB21A00144B1B7833
:1005F000DBB21900134B595C144B9954124B1B7806
:10060000DBB20133DAB2104B1A7004E00E4B002259
:100610001A7000F0C3FB0A4B1B78DBB20133DAB26D
:10062000074B1A70064B1B78DBB25BB2002B02DA69
:10063000034B00221A70C046BD4680BD1800002042
:10064000190000202C00002028000020300100208C
:1006500080B584B000AF80231B0101211800FFF793
:1006600039FE3B1D114A1A803B1D00225A803B1D5A
:100670000F4A5A603B1D00221A813B1D00229A72CC
:100680003B1D0C4A1900100001F0AEFF094B01227E
:100690000221180002F040F8064B0121180002F078
:1006A0001BF8C046BD4604B080BDC0467FBBFFFFFF
:1006B000E7030000002C014080B500AF194B022178
:1006C000180002F053F8031E012B27D1164B1B789C
:1006D000DBB20133DAB2144B1A70134B1B78DBB266
:1006E0001900124B1B78DBB25B00114A1278D2B2B0
:1006F0009B189B0099420CDB0B4B00221A700D4B90
:100700001B78DAB20A4B1A700B4B1B78DAB2074B24
:100710001A70044B0221180002F068F8C046BD466A
:1007200080BDC046002C01401C00002010000020AD
:1007300011000020130000201200002080B582B0BC
:1007400000AF3B1D0E221A703B1D00225A703B1D4C
:1007500001229A703B1D180002F05AF8C046BD46AF
:1007600002B080BD80B582B000AF80231B030121A1
:100770001800FFF78FFD3B0003225A713B00094A26
:100780001A603B0001221A713B0000229A713B0063
:10079000054A1900100001F03DFCC046BD4602B0FC
:1007A00080BDC046FFFF00000008004880B582B051
:1007B00000AF80239B0201211800FFF76BFD3B0077
:1007C00003225A713B00094A1A603B0001221A7148
:1007D0003B0000229A713A009023DB0511001800BB
:1007E00001F018FCC046BD4602B080BDF0FF00001D
:1007F00080B582B000AF8023DB0201211800FFF733
:1008000049FD3B0003225A713B00094A1A603B0034
:1008100001221A713B0000229A713B00054A19001F
:10082000100001F0F7FBC046BD4602B080BDC046D7
:10083000FFFF00000004004880B582B000AF3A60BE
:10084000FB1D021C1A703B1D0A1C1A80FB1D1B7825
:10085000002B0AD0012B00D00FE03B1D1A883B680B
:100860001100180001F092FC07E03B1D1A883B685C
:100870001100180001F09AFCC046C046BD4602B007
:1008800080BDC04680B582B000AF8023DB0301216C
:100890001800FFF7FFFC3B00F0221A603B0000222B
:1008A0001A713B0000229A713B0003225A713B00EF
:1008B0000222DA713B00044A1900100001F0AAFB81
:1008C000C046BD4602B080BD0014004880B500AFF0
:1008D000154B1021180001F035FC031E02D0134BFC
:1008E00001221A70104B2021180001F02BFC031E6E
:1008F00002D00F4B01221A700B4B4021180001F05F
:1009000021FC031E02D00B4B01221A70064B8021E2
:10091000180001F017FC031E02D0074B01221A70C9
:10092000C046BD4680BDC046001400481D000020E2
:100930001E0000201F0000202000002080B500AF16
:10094000404B1B78012B22D13F4B1B78DBB2012B94
:100950000BD13E4B1A0001210120FFF76DFF3C4BEC
:100960001A0001210020FFF767FF3A4B1B78DBB22A
:10097000012B24D1354B1A0002210120FFF75CFF27
:10098000334B1A0002210020FFF756FF17E0304BCF
:100990001A0001210120FFF74FFF2D4B1A00022101
:1009A0000120FFF749FF294B1A0002210020FFF721
:1009B00043FF264B1A0001210020FFF73DFF264B85
:1009C0001B78012B22D1254B1B78DBB2012B0BD1DD
:1009D0001E4B1A0004210120FFF72EFF1C4B1A00AA
:1009E00004210020FFF728FF1D4B1B78DBB2012BF1
:1009F00024D1164B1A0008210120FFF71DFF144BCC
:100A00001A0008210020FFF717FF17E0104B1A000B
:100A100004210120FFF710FF0D4B1A0008210120CF
:100A2000FFF70AFF094B1A0008210020FFF704FF17
:100A3000064B1A0004210020FFF7FEFEC046BD460B
:100A400080BDC046220000201D0000200008004894
:100A5000000400481E000020210000201F0000208C
:100A60002000002080B500AF9023DB051A00102184
:100A70000120FFF7E1FE9023DB051A002021012071
:100A8000FFF7DAFE9023DB051A0040210120FFF773
:100A9000D3FE9023DB051A0080210120FFF7CCFE56
:100AA0009023DA0580235B0019000120FFF7C4FEC4
:100AB0009023DA0580239B0019000120FFF7BCFE7C
:100AC0009023DA058023DB0019000120FFF7B4FE34
:100AD0009023DA0580231B0119000120FFF7ACFEEB
:100AE0009023DA0580235B0119000120FFF7A4FEA3
:100AF0009023DA0580239B0119000120FFF79CFE5B
:100B00009023DA058023DB0119000120FFF794FE12
:100B10009023DA0580231B0219000120FFF78CFEC9
:100B2000724B1A0010210020FFF786FE6F4B1A004F
:100B300020210020FFF780FE6C4B1A00402100208E
:100B4000FFF77AFE694B1A0080210020FFF774FE40
:100B5000664A80235B0019000020FFF76DFE634AA0
:100B600080239B0019000020FFF766FE5F4A802368
:100B7000DB0019000020FFF75FFE5C4A80231B01A9
:100B800019000020FFF758FE584A80235B01190026
:100B90000020FFF751FE554A80239B0119000020D9
:100BA000FFF74AFE514A8023DB0119000020FFF7BE
:100BB00043FE4E4A80231B0219000020FFF73CFE33
:100BC0004B4B1A0010210020FFF736FE484B1A004D
:100BD00020210020FFF730FE454B1A004021002065
:100BE000FFF72AFE424B1A0080210020FFF724FE67
:100BF0003F4A80235B0019000020FFF71DFE3C4A9E
:100C000080239B0019000020FFF716FE384A80233E
:100C1000DB0019000020FFF70FFE354A80231B017F
:100C200019000020FFF708FE314A80235B011900FC
:100C30000020FFF701FE2E4A80239B0119000020AF
:100C4000FFF7FAFD2A4A8023DB0119000020FFF795
:100C5000F3FD274A80231B0219000020FFF7ECFD5B
:100C6000234B1A0001210120FFF7E6FD204B1A005B
:100C700002210120FFF7E0FD1D4B1A000421012095
:100C8000FFF7DAFD1A4B1A0008210120FFF7D4FD07
:100C9000164B1A0001210020FFF7CEFD134B1A005E
:100CA00002210020FFF7C8FD104B1A00042100208C
:100CB000FFF7C2FD0D4B1A0008210020FFF7BCFD15
:100CC0000C4B00221A700C4B00221A700B4B0022A6
:100CD0001A700B4B00221A700A4B00221A700A4B32
:100CE00000221A70C046BD4680BDC04600080048BC
:100CF000000400481D0000201E0000201F000020EE
:100D000020000020210000202200002080B582B0B9
:100D100000AF0200FB1D1A70174B1B78002B22D16D
:100D2000164B1B78012B19D1154B1B78FA1D127825
:100D30009A4204D1134B1800FFF7F2FB17E0124B55
:100D400001220221180001F0E7FC104B1800FFF708
:100D5000E7FB0F4BFA1D12781A7008E00D4B1800D4
:100D6000FFF7DEFB03E00C4B1800FFF7D9FBC04692
:100D7000BD4602B080BDC046140000202500002002
:100D8000AC000020242C0008002C01404C2C000852
:100D9000AD0000205C2C00089C2C000890B585B0AC
:100DA00000AFD349D34B0C22180001F0A9FE031E5B
:100DB00043D1D14B1B78002B04D1D04B1800FFF747
:100DC000AFFBFEE1CE4B1800FFF7AAFBC94B1800A2
:100DD000FFF7A6FBCB4B1800FFF7A2FB0F23FB1876
:100DE00000221A70C84B00221A701AE0C64B1B78FA
:100DF000DBB21A1C9200D318DB18DAB20F23FB18EF
:100E00001B780C33BB49CB5CD318DBB2303BDAB276
:100E1000BD4B1A700F23FB181A780F23FB180132F1
:100E20001A700F23FB181C78B24B180001F034FE27
:100E300003000C3B9C42D9D3C3E1B449AD4B0A2219
:100E4000180001F05DFE031E5AD1AB4B1B78012B3D
:100E500007D0A94B1B78002B3ED1AD4B1B78012B43
:100E60003AD1A74B1800FFF75BFBA24B1800FFF726
:100E700057FBA44B1800FFF753FB0E23FB1800226F
:100E80001A70A44B00221A701AE0A24B1B78DBB236
:100E90001A1C9200D318DB18DAB20E23FB181B7849
:100EA0000A339449CB5CD318DBB2303BDAB2994BAE
:100EB0001A700E23FB181A780E23FB1801321A70D1
:100EC0000E23FB181C788B4B180001F0E5FD030086
:100ED0000A3B9C42D9D303E08F4B1800FFF720FB5D
:100EE000854B1B78002B00D06BE1894B1B78012BC5
:100EF00000D066E1874B1B78DAB2884B1A7060E14C
:100F000087497C4B0422180001F0FAFD031E1FD113
:100F1000794B1B78002B16D17D4B1B78012B0DD103
:100F2000804B5A221A70804B01220221180001F0D6
:100F3000F3FB7E4B1800FFF7F3FA42E1764B180003
:100F4000FFF7EEFA3DE17A4B1800FFF7E9FA38E1D6
:100F50007849684B0622180001F0D2FD031E16D115
:100F6000654B1B78012B0DD16E4B47221A70684BD5
:100F700001221A70604B00221A706F4B1800FFF7A5
:100F8000CFFA1EE16D4B1800FFF7CAFA19E16C4960
:100F9000584B0722180001F0B3FD031E03D1412076
:100FA000FFF7B4FE0DE16749524B0722180001F02C
:100FB000A7FD031E03D14220FFF7A8FE01E162490D
:100FC0004C4B0722180001F09BFD031E03D1432068
:100FD000FFF79CFEF5E05D49464B0722180001F043
:100FE0008FFD031E03D14420FFF790FEE9E058492E
:100FF000404B0C22180001F083FD031E2CD1554BF1
:101000001800FFF78DFA544B1B78DBB21800082349
:10101000FB180A22190001F0F5FC0823FB18180040
:10102000FFF77EFA4D4B1800FFF77AFA4C4B180089
:10103000FFF776FA394B1B78DBB218003B000A2227
:10104000190001F0DFFC3B001800FFF769FA434B81
:101050001800FFF765FAB4E04249264B0322180056
:1010600001F04EFD031E10D1234B1B78002B04D141
:10107000224B1800FFF754FAA3E03B4B01221A70F1
:101080003A4B1800FFF74CFA9BE03949194B032201
:10109000180001F035FD031E10D1174B1B78002BF3
:1010A00004D1164B1800FFF73BFA8AE0314B0122BE
:1010B0001A70314B1800FFF733FA82E02F490D4BBD
:1010C0000322180001F01CFD031E5DD10A4B1B78A2
:1010D000002B04D1094B1800FFF722FA71E0284BCE
:1010E00001221A70274B1800FFF71AFA69E0C04670
:1010F000C82C00083001002014000020D82C000863
:10110000082D00082C2D000813000020302D0008A9
:1011100025000020120000205C2C00081000002098
:101120003C2D0008AD000020002C0140442D00089B
:101130005C2D0008902D0008982D0008B02D0008A7
:10114000E02D0008E82D0008F02D0008F82D00081B
:10115000002E0008102E000811000020302E00087C
:101160003C2E0008582E00081D0000205C2E0008B0
:10117000882E00081E0000208C2E0008B82E0008C3
:101180001F000020BC2E00081549164B0322180032
:1011900001F0B6FC031E10D1134B1B78002B04D1B9
:1011A000124B1800FFF7BCF90BE0114B01221A702B
:1011B000104B1800FFF7B4F903E00F4B1800FFF7CE
:1011C000AFF9084B180001F067FC0200054B002145
:1011D000180001F01BFCC046BD4605B090BDC046DE
:1011E000E82E00083001002014000020D82C000850
:1011F00020000020EC2E0008182F000890B583B0C6
:1012000000AF040008001100BB1D221C1A803B1D0A
:10121000021C1A80BB1C0A1C1A80364B1B78DAB2DF
:10122000354B1B78DBB29A4229D1344ABB1D1B884F
:1012300019000120FFF700FB304A3B1D1B881900F5
:101240000120FFF7F9FA2D4ABB1C1B881900012069
:10125000FFF7F2FA2A4ABB1D1B8819000020FFF78E
:10126000EBFA274A3B1D1B8819000020FFF7E4FA20
:10127000234ABB1C1B8819000020FFF7DDFA1D4B19
:101280001B78DBB21A001C4B1B78DBB25B009A4266
:101290002CD11A4ABB1D1B8819000020FFF7CCFA7D
:1012A000164A3B1D1B8819000020FFF7C5FA134A98
:1012B000BB1C1B8819000020FFF7BEFA9023DA053B
:1012C000BB1D1B8819000120FFF7B6FA9023DA0531
:1012D0003B1D1B8819000120FFF7AEFA9023DA05A9
:1012E000BB1C1B8819000120FFF7A6FAC046BD46AB
:1012F00003B090BD1C000020100000200004004836
:1013000000080048B0B582B000AF05000C00100026
:101310001900BB1D2A1C1A803B1D221C1A80BB1CF5
:10132000021C1A807B1C0A1C1A70574B1B78DBB2FC
:101330001A00564B1B78DBB25B009A4216D17B1C1D
:101340001B78412B03D07B1C1B78422B03D1504BC5
:1013500000221A700AE07B1C1B78432B03D07B1CF5
:101360001B78442B02D14B4B00221A70464B1B7842
:10137000DBB21900454B1B78DBB21A0013005B008F
:101380009B18994214D1444ABB1D1B8819000120A7
:10139000FFF752FA404A3B1D1B8819000120FFF756
:1013A0004BFA3D4ABB1C1B8819000120FFF744FA89
:1013B000354B1B78DBB21A00344B1B78DBB29B0039
:1013C0009A425CD19023DA05BB1D1B8819000020CE
:1013D000FFF732FA9023DA053B1D1B881900002025
:1013E000FFF72AFA9023DA05BB1C1B88190000209E
:1013F000FFF722FA284ABB1D1B8819000020FFF7BF
:101400001BFA254A3B1D1B8819000020FFF714FA20
:10141000214ABB1C1B8819000020FFF70DFA1F4A48
:10142000BB1D1B8819000120FFF706FA1B4A3B1D54
:101430001B8819000120FFF7FFF9184ABB1C1B8805
:1014400019000120FFF7F8F9154B7A1C12781A7071
:101450007B1C1B78412B03D07B1C1B78422B03D1B8
:101460000C4B01221A700AE07B1C1B78432B03D023
:101470007B1C1B78442B02D1054B01221A70C046FD
:10148000BD4602B0B0BDC0461C00002010000020C8
:10149000220000202100002000040048000800482D
:1014A000AC00002080B500AFFFF75CF9FFF77EF9D4
:1014B000FFF79EF9FFF7E6F9FFF7D4FAFEF760FFB2
:1014C000FFF7C6F8FFF73AF9FFF700FAFFF778F8E9
:1014D000FFF734FAF24B1B78012B08D0F14B1B7845
:1014E000012B04D0F04B1B78012B00D0B0E3EF4B65
:1014F0001B78DBB2002B40D19023DA0580235B01FF
:1015000019000120FFF798F99023DA0580231B02C8
:1015100019000120FFF790F9E54A80235B011900CB
:101520000020FFF789F9E24A80231B0219000020FE
:10153000FFF782F9DC4B00221A70D94B1B78002B85
:101540001BD0D84B01221A70D94B1A001021012050
:10155000FFF772F9D64B1A0020210120FFF76CF932
:10156000D34B1A0080210120FFF766F9D04A80236F
:101570005B0019000120FFF75FF9CC4B1B78DAB252
:10158000CC4B1B78DBB29A4251D1CB4B01221A7063
:101590009023DB051A0010210020FFF74DF990235E
:1015A000DB051A0020210020FFF746F99023DB0518
:1015B0001A0080210020FFF73FF99023DA058023ED
:1015C0005B0019000020FFF737F9B94B1A00102112
:1015D0000020FFF731F9B64B1A0020210020FFF759
:1015E0002BF9B34B1A0080210020FFF725F9B04AF0
:1015F00080235B0019000020FFF71EF9AF4B1A0093
:1016000010210120FFF718F9AC4B1A00202101200E
:10161000FFF712F9A94B1A0080210120FFF70CF9FE
:10162000A64A80235B0019000120FFF705F99F4BB4
:101630001B78DBB21A009F4B1B78DBB21900A04B62
:101640001B78DBB2CB189A4231D19C4B1A00102187
:101650000020FFF7F1F8994B1A0020210020FFF736
:10166000EBF8964B1A0080210020FFF7E5F8934A2B
:1016700080235B0019000020FFF7DEF88C4B1A0076
:1016800010210120FFF7D8F8894B1A0020210120F2
:10169000FFF7D2F8864B1A0080210120FFF7CCF823
:1016A000834A80235B0019000120FFF7C5F87F4BB8
:1016B0001B78DBB219007F4B1B78DBB25B00804AE2
:1016C0001278D2B29B1899424CD1794B1A00102152
:1016D0000020FFF7B1F8764B1A0020210020FFF719
:1016E000ABF8734B1A0080210020FFF7A5F8704A71
:1016F00080235B0019000020FFF79EF89023DB0594
:101700001A0010210120FFF797F89023DB051A003B
:1017100020210120FFF790F89023DB051A0080219B
:101720000120FFF789F89023DA0580235B00190078
:101730000120FFF781F85B4B00221A70584B1B7891
:10174000002B0FD0584B01221A70594B1A00402120
:101750000120FFF771F8564A80239B0019000120F1
:10176000FFF76AF8514B1B78DBB21900514B1B781D
:10177000DBB21A0013005B009B18514A1278D2B2F8
:101780009B18994228D14A4B1A0040210020FFF7AC
:1017900053F8474A80239B0019000020FFF74CF8BC
:1017A0009023DB051A0040210020FFF745F8902325
:1017B000DA0580239B0019000020FFF73DF83F4B1E
:1017C0001A0040210120FFF737F83C4A80239B0094
:1017D00019000120FFF730F8344B1B78DBB21900F9
:1017E000344B1B78DBB21A0013005B009A18344BA1
:1017F0001B78DBB25B00D318994222D12F4B1A0021
:1018000040210020FFF718F82C4A80239B00190084
:101810000020FFF711F8264B1A0040210120FFF7A6
:101820000BF8234A80239B0019000120FFF704F8DE
:10183000214B00221A70234B00221A70224B0022E7
:101840001A701A4B1B78DBB219001A4B1B78DBB2EB
:101850005B001B4A1278D2B29B185B00994258D1A8
:10186000134B1A0040210020FEF7E6FF104A8023A8
:101870009B0019000020FEF7DFFF9023DB051A0014
:1018800040210120FEF7D8FF9023DA0580239B003A
:1018900019000120FEF7D0FF034B00221A7015E05B
:1018A0001400002023000020240000201C00002041
:1018B000000400481000002021000020000800481B
:1018C000110000201F00002020000020EF4B1B789B
:1018D000002B1ED0EE4B01221A70EE4A8023DB0053
:1018E00019000120FEF7A8FFEA4A80231B01190016
:1018F0000120FEF7A1FFE74A80239B011900012088
:10190000FEF79AFFE34A8023DB0119000120FEF76E
:1019100093FFE14B1B78DBB21900E04B1B78DBB285
:101920001A0013009B009A18DD4B1B78DBB25B009A
:10193000D31899425AD1DB4B01221A70D54A802321
:10194000DB0019000020FEF777FFD24A80231B013D
:1019500019000020FEF770FFCE4A80239B0119007A
:101960000020FEF769FFCB4A8023DB01190000202D
:10197000FEF762FF9023DA058023DB0019000020C8
:10198000FEF75AFF9023DA0580231B01190000207F
:10199000FEF752FF9023DA0580239B0119000020F7
:1019A000FEF74AFF9023DA058023DB0119000020AF
:1019B000FEF742FFBC4A8023DB0019000120FEF73E
:1019C0003BFFB94A80231B0119000120FEF734FFB9
:1019D000B54A80239B0119000120FEF72DFFB24A72
:1019E0008023DB0119000120FEF726FFAA4B1B789C
:1019F000DBB21800A94B1B78DBB21A0013009B0066
:101A00009A18A74B1B78DBB219000B005B005B1820
:101A1000D318984237D1A44A8023DB001900002054
:101A2000FEF70AFFA04A80231B0119000020FEF7E1
:101A300003FF9D4A80239B0119000020FEF7FCFE56
:101A4000994A8023DB0119000020FEF7F5FE914A38
:101A50008023DB0019000120FEF7EEFE8D4A802373
:101A60001B0119000120FEF7E7FE8A4A80239B0133
:101A700019000120FEF7E0FE864A8023DB011900F1
:101A80000120FEF7D9FE844B1B78DBB21900834B93
:101A90001B78DBB21A0013005B009B185B00180078
:101AA0007F4B1B78DBB21A0013005B009B18C31836
:101AB000994253D1774A8023DB0019000020FEF7BA
:101AC000BBFE744A80231B0119000020FEF7B4FE00
:101AD000704A80239B0119000020FEF7ADFE6D4A7D
:101AE0008023DB0119000020FEF7A6FE9023DA0513
:101AF0008023DB0019000120FEF79EFE9023DA050B
:101B000080231B0119000120FEF796FE9023DA05C1
:101B100080239B0119000120FEF78EFE9023DA0539
:101B20008023DB0119000120FEF786FE584B0022BE
:101B30001A70564B1B78002B10D05C4B01221A7088
:101B4000544A80235B0119000120FEF775FE514ABB
:101B500080231B0219000120FEF76EFE4E4B1B78FE
:101B6000DBB218004D4B1B78DBB21A001300DB0010
:101B70009A1A4B4B1B78DBB219000B005B005B1809
:101B8000D31898422BD1434A80235B0119000020CF
:101B9000FEF752FE3F4A80231B0219000020FEF789
:101BA0004BFE9023DA0580235B0119000020FEF72D
:101BB00043FE9023DA0580231B0219000020FEF764
:101BC0003BFE394A80235B0119000120FEF734FEF9
:101BD000354A80231B0219000120FEF72DFE2E4BF3
:101BE0001B78DBB219002D4B1B78DBB21A001300F7
:101BF000DB009A1A2A4B1B78DBB29B00D318994260
:101C000000D010E1284A80235B0119000020FEF774
:101C100013FE254A80231B0219000020FEF70CFE4C
:101C20001C4A80235B0119000120FEF705FE194ABA
:101C300080231B0219000120FEF7FEFD194B002234
:101C40001A701B4B00221A701A4B00221A70EAE01D
:101C5000194B1A78194B1B789A4200D1CBE0174BDD
:101C60001B78412B05D1402220211020FFF7C6FA16
:101C700041E0124B1B78422B22D180239A00802313
:101C80005B0019008020FFF7B9FA34E0140000204F
:101C900023000020000400481C0000201000002049
:101CA000110000202200002000080048240000202D
:101CB0001D0000201E000020AD000020AC00002010
:101CC0005A4B1B78432B09D180235A0180231901D9
:101CD0008023DB001800FFF791FA0CE0534B1B78D0
:101CE000442B08D180231A028023D90180239B0131
:101CF0001800FFF783FA4E4B1B78412B09D14D4B4F
:101D000000221A704123402220211020FFF7FAFA06
:101D100060E0474B1B78422B0BD1464B00221A70D8
:101D200080239A008023590042238020FFF7EAFA9B
:101D300050E03F4B1B78432B0CD13E4B00221A70D6
:101D400080235A01802319018023D8004323FFF701
:101D5000D9FA3FE0364B1B78442B0CD1354B00228F
:101D60001A7080231A028023D9018023980144230A
:101D7000FFF7C8FA2EE02E4B1B785A2B1BD12E4BA7
:101D80001B78DBB219002D4B1B78DBB21A00130055
:101D90005B009B1899420ED1274B00221A70234BEF
:101DA00059221A70224B56221A70254B01221A70A2
:101DB000FEF758FE0EE01E4B1B785A2B0AD0FEF79A
:101DC00051FE1D4B00221A701E4B002202211800EA
:101DD00000F0A2FC184B1B78DBB21A00174B1B78E3
:101DE000DBB29B009A4201DCFFF76EFB124B002234
:101DF0001A70FFF769FB144B01221A70134B012272
:101E00001A70134B01221A70124B01221A70094BDF
:101E100001221A70084B00221A700A4B002202217C
:101E2000180000F079FCFFF74FFBC046AC00002023
:101E3000AD000020250000201C0000201000002024
:101E400014000020002C01401D0000201E00002076
:101E50001F000020200000200C488546002103E0E0
:101E60000B4B5B58435004310A480B4B42189A42C3
:101E7000F6D30A4A02E0002313600432084B9A4268
:101E8000F9D300F011F8FFF70DFBFEE7002000206A
:101E90005C2F00080000002018000020180000201F
:101EA000B0010020FEE7000080B500AF1B4B1B4ACD
:101EB000126801210A431A60184B184A52681849DF
:101EC0000A405A60154B154A126816490A401A60B2
:101ED000124B124A126814490A401A600F4B0F4AFB
:101EE000526812490A405A600C4B0C4AD26A0F21C0
:101EF0008A43DA62094B094A126B0D490A401A6398
:101F0000064B064A526B01218A435A63034B002257
:101F10009A6000F00FF8C046BD4680BD0010024038
:101F20000CB8FFF8FFFFF6FEFFFFFBFFFFFFC0FF4F
:101F3000ACFEFFFF80B582B000AF00237B600023C2
:101F40003B60314B304A1268802149020A431A60D3
:101F50002D4B1A6880239B0213403B607B68013342
:101F60007B603B68002B04D17A68A023DB019A4296
:101F7000EED1254B1A6880239B02134002D0012327
:101F80003B6001E000233B603B68012B38D11F4BD5
:101F900011221A601C4B1C4A52685A601A4B1A4A8A
:101FA00052685A60184B184A526819490A405A60D8
:101FB000154B154A5268882149030A435A60124B4F
:101FC000114A1268802149040A431A60C0460E4B28
:101FD0001A6880239B041340F9D00B4B0A4A5268BD
:101FE00003218A435A60084B074A526802210A4378
:101FF0005A60C046044B5B680C221340082BF9D191
:10200000C046BD4602B080BD001002400020024024
:10201000FFFFC0FF80B586B000AF78603960002355
:102020007B6100233B610023FB6000237B6181E037
:1020300001227B699A4013003B613B681B683A6947
:102040001340FB60FA683B699A4270D13B681B7988
:10205000012B03D03B681B79022B38D17B689B682E
:102060007A695200032191400A00D2431A407B68EA
:102070009A607B689A683B685B7919007B695B00B2
:1020800099400B001A437B689A607B689B889BB2DF
:102090007A691204120C012191400A0092B2D243D3
:1020A00092B213409AB27B689A807B689B889BB2FD
:1020B0001AB23B689B7919007B691B041B0C994081
:1020C0000B001BB213431BB29AB27B689A807B68E9
:1020D0001B687A695200032191400A00D2431A40DA
:1020E0007B681A607B681A683B681B7919007B69FA
:1020F0005B0099400B001A437B681A607B68DB68C1
:102100007A691204120C5200032191400A00D24352
:102110001A407B68DA607B68DA683B68DB79190013
:102120007B695B0099400B001A437B68DA607B692E
:1021300001337B617B690F2B00D879E7C046BD4630
:1021400006B080BD80B584B000AF78600A00BB1CCB
:102150001A800F23FB1800221A707B681B8A9BB21F
:10216000BA1C128813409BB2002B04D00F23FB181B
:1021700001221A7003E00F23FB1800221A700F23AC
:10218000FB181B781800BD4604B080BD80B582B036
:1021900000AF78600A00BB1C1A80BB1C1A887B68E1
:1021A0009A61C046BD4602B080BDC04680B582B0CF
:1021B00000AF78600A00BB1C1A807B68BA1C1288CA
:1021C0001A85C046BD4602B080BDC04680B584B009
:1021D00000AF786008001100BB1C021C1A807B1C39
:1021E0000A1C1A700023FB600023BB607B1C1A785A
:1021F000BB1C1B8807210B409B009A401300FB600F
:10220000BB1C1B88DB089BB21800BB1C1B88DB08AF
:102210009BB21A007B6808329200D358BA1C12880D
:1022200007210A4092000F2191400A00D2431A4030
:1022300011007B68020008329200D150BB1C1B8841
:10224000DB089BB21A007B6808329200D258FB6808
:102250001343BB60BB1C1B88DB089BB21A007B6866
:1022600008329200B968D150C046BD4604B080BD66
:10227000ABBE01E000207047002A00D010600120B2
:10228000704706980188034A914202D104300690B3
:102290007047FEE7ABBE000080B58CB000AF786041
:1022A00039600023FB620023BB6200237B627B68F2
:1022B0001B68012293431A007B681A607B685B6885
:1022C0007B627B6A474A13407B623B689B687A6A01
:1022D00013437B627B687A6A5A607B681B687B6207
:1022E0007B6A414A13407B623B685A683B68DB6803
:1022F0001A433B681B6913437A6A13437B627B680A
:102300007A6A1A607B689B687B627B6A374A1340F3
:102310007B623B685B697A6A13437B627B687A6A9B
:102320009A600823FB181800FDF7CCFE7B68304A42
:10233000934204D10823FB189B69BB6203E0082386
:10234000FB189B68BB627B681A6880231B021340E2
:1023500014D0BB6A5A003B681B681900100000F0DB
:10236000ADFA0300FB62BB6A5A003B681B681900A8
:10237000100000F029FB0B007B6210E03B681B683B
:102380001900B86A00F09AFA0300FB623B681A6809
:10239000BB6A1100180000F017FB0B007B623B6862
:1023A0001B685A087B6A9A4202D8FB6A0133FB62B7
:1023B0007B681A6880231B0213400AD0FB6A5B0803
:1023C000072213407B62FB6A0A4A1A407B6A134366
:1023D000FB62FB6A9AB27B689A81C046BD460CB02C
:1023E00080BDC046FFCFFFFFF3E9FFFFFFFCFFFF0B
:1023F00000380140F0FF000080B582B000AF786087
:102400000A00FB1C1A70FB1C1B78002B06D07B6893
:102410001B6801221A437B681A6006E07B681B6810
:10242000012293431A007B681A60C046BD4602B081
:1024300080BDC04680B582B000AF78600A00BB1C8A
:102440001A80BB1C1B88DB05DB0D9AB27B681A85E2
:10245000C046BD4602B080BD80B582B000AF786096
:102460007B689B8C9BB2DB05DB0D9BB21800BD46E5
:1024700002B080BD80B588B000AFF860B960FB1DC8
:102480001A700023BB6100237B6100233B610023A2
:10249000FB61FB68FB61BB681B121A00FF23134042
:1024A000BB61BB68FF2213407B6101227B699A40BC
:1024B00013003B61BB69022B03D1FB690433FB6151
:1024C00005E0BB69032B02D1FB690833FB61FB1DEF
:1024D0001B78002B06D0FB69FA6911683A690A4338
:1024E0001A6006E0FB69FA6912683969C9430A4053
:1024F0001A60C046BD4608B080BDC04680B584B0F5
:1025000000AF786039600F23FB1800221A707B68D7
:10251000DB693A68134004D00F23FB1801221A70BC
:1025200003E00F23FB1800221A700F23FB181B78FF
:102530001800BD4604B080BD80B586B000AF78609D
:1025400039600023FB6000237B610023BB60132301
:10255000FB1800221A703B681B121A00FF2313405D
:10256000BB603B68FF2213407B6101227B699A407C
:1025700013007B61BB68012B05D17B681A687B69FE
:1025800013407B610DE0BB68022B05D17B685A6864
:102590007B6913407B6104E07B689A687B69134028
:1025A0007B613B681B0CFB600122FB689A401300B7
:1025B000FB607B68DA69FB681340FB607B69002B7A
:1025C00007D0FB68002B04D01323FB1801221A70DC
:1025D00003E01323FB1800221A701323FB181B7847
:1025E0001800BD4606B080BD80B584B000AF7860ED
:1025F00039600E23FB1800221A800E23FB187A681C
:1026000012881A807B682D4A934208D07A6880230A
:10261000DB059A4203D07B68294A934210D10E23EE
:10262000FB180E22BA18128870218A431A803B6860
:1026300059880E23FB180E22BA1812880A431A80F2
:102640007B68204A934210D00E23FB180E22BA1842
:1026500012881D490A401A803B6819890E23FB180D
:102660000E22BA1812880A431A807B680E22BA1802
:1026700012881A803B685A687B68DA623B681A885D
:102680007B681A857B680D4A93420BD07B680F4AA2
:10269000934207D07B680E4A934203D07B680D4A71
:1026A000934204D13B689B7A9AB27B681A867B6816
:1026B00001229A82C046BD4604B080BD002C014074
:1026C0000004004000100040FFFCFFFF00400140FC
:1026D000004401400048014080B582B000AF7860FE
:1026E0000A00FB1C1A70FB1C1B78002B08D07B68AF
:1026F0001B889BB2012213439AB27B681A8007E0C1
:102700007B681B889BB2012293439AB27B681A8034
:10271000C046BD4602B080BD80B582B000AF7860D3
:1027200008001100BB1C021C1A807B1C0A1C1A70BA
:102730007B1C1B78002B09D07B689B899AB2BB1C41
:102740001B8813439AB27B689A810AE07B689B8955
:102750009BB2BA1C1288D24392B213409AB27B68E1
:102760009A81C046BD4602B080BDC04680B584B0E7
:1027700000AF78600A00BB1C1A800F23FB180022F0
:102780001A700C23FB1800221A800A23FB1800225F
:102790001A807B681B8A9AB20C23FB18B91C098823
:1027A0000A401A807B689B899AB20A23FB18B91CDD
:1027B00009880A401A800C23FB181B88002B09D0BB
:1027C0000A23FB181B88002B04D00F23FB180122BF
:1027D0001A7003E00F23FB1800221A700F23FB1856
:1027E0001B781800BD4604B080BDC04680B582B0DD
:1027F00000AF78600A00BB1C1A80BB1C1B88DB433F
:102800009AB27B681A82C046BD4602B080BDC046FF
:1028100080B584B000AF78600023FB607B689B7854
:10282000002B39D0244A7B681B789B08DBB2C0336D
:102830009B009B58FB607B681B781A0003231340A6
:10284000DB00FF229A401300DA43FB681340FB6071
:102850007B685B789B01FF221A407B681B7819001C
:1028600003230B40DB009A401300FA681343FB601C
:1028700011497B681B789B08DBB2C0339B00FA6868
:102880005A500D4B7A68127811001F220A4001211C
:1028900091400A001A600AE007497B681B781A0019
:1028A0001F23134001229A40130080228B50C04600
:1028B000BD4604B080BDC04600E100E000224308F0
:1028C0008B4274D303098B425FD3030A8B4244D3F8
:1028D000030B8B4228D3030C8B420DD3FF2209023A
:1028E00012BA030C8B4202D31212090265D0030BF9
:1028F0008B4219D300E0090AC30B8B4201D3CB03EF
:10290000C01A5241830B8B4201D38B03C01A524130
:10291000430B8B4201D34B03C01A5241030B8B4232
:1029200001D30B03C01A5241C30A8B4201D3CB021D
:10293000C01A5241830A8B4201D38B02C01A524102
:10294000430A8B4201D34B02C01A5241030A8B4205
:1029500001D30B02C01A5241CDD2C3098B4201D31D
:10296000CB01C01A524183098B4201D38B01C01A9B
:10297000524143098B4201D34B01C01A5241030912
:102980008B4201D30B01C01A5241C3088B4201D3C1
:10299000CB00C01A524183088B4201D38B00C01A6E
:1029A000524143088B4201D34B00C01A5241411A95
:1029B00000D20146524110467047FFE701B50020A2
:1029C00000F006F802BDC0460029F7D076E7704750
:1029D0007047C046931E10B50C00222B0ED80A2A51
:1029E00005D00021611800F0D7F8200010BD0028A4
:1029F000F7DA2D2340420B700121F3E7002300207A
:102A00000B70F3E710B5FFF7E5FF10BD70B5830756
:102A10003FD0541E002A3BD0CEB20300032503E072
:102A2000621E002C34D0140001335A1E16702B4243
:102A3000F6D1032C24D9FF250D402A0215432A0480
:102A400015430F2C11D92600103E360901363601E8
:102A50001A009B19156055609560D560103293423D
:102A6000F8D10F221440032C0AD9261FB6080136CC
:102A7000B6001A009B1920C29342FCD103221440D5
:102A8000002C05D0C9B21C19197001339C42FBD12E
:102A900070BD14000300CCE710B5830727D003787E
:102AA000002B26D00300032102E01A78002A1CD054
:102AB00001330B42F9D119680F4A104C8A188A4326
:102AC00022420FD1043319680B4A8A188A432242E2
:102AD00008D104331968084A8A188A432242F1D07F
:102AE00000E001331A78002AFBD1181A10BD030048
:102AF000E1E70020FAE7C046FFFEFEFE808080800E
:102B0000030030B50020002A3BD01C000C43A40772
:102B100020D1032A1ED91C680D68AC421AD1043A90
:102B2000002A2ED01A4D6519A5432C00194D2C42B0
:102B30000CD026E018680C68A0420BD1043A002A99
:102B400020D0134C041984432C421BD1043304318C
:102B5000032AEFD81C780878013AA04214D1002A41
:102B600010D04C1C8A18002805D10BE0A24209D0D5
:102B70000134002906D00133197820788142F5D03C
:102B8000081A30BD0020FCE72100081AF9E7C0460A
:102B9000FFFEFEFE80808080F0B5574645464E46DB
:102BA000E0B48AB090466A461D4B0D00060013CB78
:102BB00013C213CB13C213CB13C21B78EA46137094
:102BC0004346023B2F000024222B01D924E04C462F
:102BD000631C300041469946FFF7F6FE53465B5CA6
:102BE00030003B704146FFF769FE0137061EEED10B
:102BF0004B46E8540023002C07D0EA5C295DE954D9
:102C00002A550133013CA342F7DB28000AB01CBC63
:102C100090469946A246F0BD2C700020F6E7C046CB
:102C2000342F000857594252414C455320555255B4
:102C300043484F4D494F4E59205359474E414C49F7
:102C40005A41544F52200D0A00000000555255437E
:102C5000484F4D494F4E4F200D0A00004E49452028
:102C60004D4F5A45535A20572054454A2043485700
:102C7000494C4920444F4B4F4E4143205A4D494106
:102C80004E592D545257412050525A454C41435AA7
:102C9000414E494520200D0A000000004F50434A94
:102CA0004120444F535445504E412054594C4B4FB2
:102CB000205720545259424945204D414E55414CD0
:102CC0004E594D200D0A0000435A41535A49454C74
:102CD0004F4E453D000000004F50434A4120444FB5
:102CE000535445504E412054594C4B4F205720547B
:102CF0005259424945204155544F4D415459435A28
:102D00004E594D200D0A0000555354415749414D2D
:102D1000204E4153544550554AA5434520574152F2
:102D2000544F5343493A200D0A0000000D0A000099
:102D3000435A41535A4F4C54453D00004155544F5E
:102D40000000000054525942204155544F20574C26
:102D500041435A4F4E59200D0A0000005359474E27
:102D6000414C495A41434A41204A555A20445A4904
:102D7000414C412057205452594249452041555415
:102D80004F4D415459435A4E594D200D0A000000F1
:102D90004D414E55414C000054525942204D414E38
:102DA00055414C20574C41435A4F4E59200D0A0073
:102DB0005359474E414C495A41434A41204A555A7A
:102DC00020445A49414C41205720545259424945C8
:102DD000204D414E55414C4E594D20200D0A0000CA
:102DE000412D574C41435A00422D574C41435A0004
:102DF000432D574C41435A00442D574C41435A00F0
:102E0000414B5455414C4E59435A41530000000028
:102E1000435A41532050414C454E4941205349CAE1
:102E2000205A49454C4F4E45474F3A20000000007C
:102E30002053454B554E44200D0A0000435A415340
:102E40002050414C454E4941205349CA20AFD34CF4
:102E50005445474F3A200000413D31005359474EF9
:102E6000414C495A41434A4120274127205A4F5358
:102E700054414E49452055525543484F4D494F4EB8
:102E800041200D0A00000000423D31005359474ED9
:102E9000414C495A41434A4120274227205A4F5327
:102EA00054414E49452055525543484F4D494F4E88
:102EB00041200D0A00000000433D31005359474EA8
:102EC000414C495A41434A4120274327205A4F53F6
:102ED00054414E49452055525543484F4D494F4E58
:102EE00041200D0A00000000443D31005359474E77
:102EF000414C495A41434A4120274427205A4F53C5
:102F000054414E49452055525543484F4D494F4E27
:102F100041200D0A0000000042A3CA444E4945204A
:102F20005750524F5741445A4F4E452044414E4509
:102F3000200D0A003031323334353637383961628A
:102F4000636465666768696A6B6C6D6E6F707172D9
:0C2F5000737475767778797A00000000C1
:102F5C000000000001020304010203040607080933
:082F6C0002050205010000004E
:0400000508000000EF
:00000001FF
